:100000000C942E0D0C945B0D0C945B0D0C945B0DFD
:100010000C945B0D0C945B0D0C945B0D0C945B0DC0
:100020000C945B0D0C945B0D0C945B0D0C945B0DB0
:100030000C945B0D0C941CC60C945B0D0C945B0D26
:100040000C945B0D0C943E710C945B0D0C945B0D49
:100050000C945B0D0C945B0D0C94D0790C9498C2AD
:100060000C945B0D0C9455270C945B0D0C945B0D5C
:100070000C945B0D0C945B0D0C945B0D0C945B0D60
:100080000C945B0D0C945B0D0C945B0D0C945B0D50
:100090000C945B0D0C945B0D0C945B0D0C941FBFCA
:1000A0000C945B0D0C945B0D0C945B0D0C945B0D30
:1000B0000C945B0D0C945B0D0C945B0D0C945B0D20
:1000C0000C945B0D0C945B0D0C945B0D0C945B0D10
:1000D0000C945B0D0C945B0D0C945B0D0C945B0D00
:1000E0000C945B0D084AD73B3BCE016E84BCBFFD30
:1000F000C12F3D6C74319ABD56833DDA3D00C77FF8
:1001000011BED9E4BB4C3E916BAAAABE0000008090
:100110003F05A84CCDB2D44EB93836A9020C50B91F
:10012000918688083CA6AAAA2ABE000000803F4DFE
:100130003834205820592045006563686F3A0043E1
:10014000616E6E6F7420656E746572207375626483
:1001500069723A20004D3234004D3233202573004D
:100160006175746F25692E67004572726F723A006F
:100170006572726F722077726974696E6720746F2E
:100180002066696C65004E6F74205344207072695C
:100190006E74696E67002F005344207072696E742C
:1001A000696E67206279746520002E0044656C6575
:1001B00074696F6E206661696C65642C2046696C99
:1001C000653A200046696C652064656C65746564F9
:1001D0003A002E006F70656E206661696C65642C54
:1001E0002046696C653A200057726974696E672011
:1001F000746F2066696C653A20002E006F70656E22
:10020000206661696C65642C2046696C653A200043
:100210002E006F70656E206661696C65642C2046E7
:10022000696C653A200046696C652073656C65638E
:10023000746564002053697A653A200046696C65EC
:10024000206F70656E65643A20002E006F70656ED9
:10025000206661696C65642C2046696C653A2000F3
:1002600053442063617264206F6B006F70656E523F
:100270006F6F74206661696C656400766F6C756D74
:10028000652E696E6974206661696C65640053440B
:1002900020696E6974206661696C006563686F3AF5
:1002A0000048617264636F646564204465666175CB
:1002B0006C742053657474696E6773204C6F61644D
:1002C00065640053746F7265642073657474696E3D
:1002D00067732072657472696576656400204400F6
:1002E0002049002020204D33303120500050494417
:1002F0002073657474696E67733A00205A00205940
:100300000020204D323036205800486F6D65206F38
:10031000666673657420286D6D293A0020450020BB
:100320005A0020580020420020540020204D323036
:1003300035205300416476616E6365642076617296
:100340006961626C65733A20533D4D696E20666544
:1003500065647261746520286D6D2F73292C20549B
:100360003D4D696E2074726176656C2066656564CA
:100370007261746520286D6D2F73292C20423D6DAC
:10038000696E696D756D207365676D656E74207437
:10039000696D6520286D73292C20583D6D61786941
:1003A0006D756D205859206A65726B20286D6D2F10
:1003B00073292C20205A3D6D6178696D756D205A26
:1003C000206A65726B20286D6D2F73292C202045C3
:1003D0003D6D6178696D756D2045206A65726B2091
:1003E000286D6D2F73290020540020204D323034A9
:1003F000205300416363656C65726174696F6E3A86
:1004000020533D616363656C65726174696F6E2C26
:1004100020543D7265747261637420616363656C1E
:1004200065726174696F6E00204500205A00205982
:100430000020204D3230312058004D6178696D75B3
:100440006D20416363656C65726174696F6E20280D
:100450006D6D2F7332293A00204500205A00205933
:100460000020204D3230332058004D6178696D7581
:100470006D2066656564726174657320286D6D2FEB
:1004800073293A00204500205A0020590020204DB1
:10049000393220580053746570732070657220756E
:1004A0006E69743A0053657474696E67732053748F
:1004B0006F726564006563686F3A004572726F72AF
:1004C0003A0053544F505045442E20005072696EEC
:1004D0007465722073746F70706564206475652034
:1004E000746F206572726F72732E20466978207463
:1004F0006865206572726F7220616E642075736525
:10050000204D39393920746F2072657374617274AB
:100510002E202854656D706572617475726520694E
:10052000732072657365742E20536574206974207E
:1005300061667465722072657374617274696E6746
:1005400029004B494C4C45442E20005072696E7472
:1005500065722068616C7465642E206B696C6C2810
:10056000292063616C6C656421006F6B00526573B8
:10057000656E643A20002200556E6B6E6F776E20B8
:10058000636F6D6D616E643A2022007A5F6D6178F1
:100590003A20007A5F6D696E3A2000795F6D61786C
:1005A0003A2000795F6D696E3A2000785F6D61785E
:1005B0003A2000785F6D696E3A20005A3A00593A45
:1005C0000020436F756E7420583A2000453A005A57
:1005D0003A00593A00583A004649524D574152455F
:1005E0005F4E414D453A4D61726C696E2056313B0C
:1005F00020537072696E7465722F6772626C206D21
:10060000617368757020666F722067656E3620466C
:1006100049524D574152455F55524C3A6874747077
:10062000733A2F2F7777772E33646A6F792E636E44
:100630002050524F544F434F4C5F56455253494FF1
:100640004E3A312E30204D414348494E455F545972
:1006500050453A4A6F79736D616B65722052322052
:1006600045585452554445525F434F554E543A31C4
:100670000A0042656420646F6E652E0020423A00D5
:1006800020453A00543A0042656420486561746927
:100690006E672E0048656174696E6720646F6E65D1
:1006A0002E0020573A0020453A00543A0048656130
:1006B00074696E672E2E2E002042403A0020403A88
:1006C00000202F0020423A00202F006F6B20543A68
:1006D000002569206D696E2C2025692073656300F3
:1006E000456E642066696C65206C697374004265B0
:1006F00067696E2066696C65206C697374004E6F63
:10070000206D6F76652E00526573756D696E67207A
:100710007072696E74005761697420666F7220751B
:100720007365722E2E2E00536C6565702E2E2E0072
:1007300000000000000000000000000000000000B9
:10074000000000000000000000004D4300004D4389
:100750000000C84300004D4300004D430000C84363
:100760000000A0400000A0400000803FFFFFFF25E8
:100770006920686F757273202569206D696E7574C4
:10078000657300446F6E65207072696E74696E6780
:100790002066696C650053544F505045442E20002C
:1007A0005072696E7465722073746F707065642026
:1007B00064756520746F206572726F72732E2046A7
:1007C000697820746865206572726F7220616E644A
:1007D00020757365204D39393920746F2072657327
:1007E000746172742E202854656D70657261747521
:1007F00072652069732072657365742E2053657469
:100800002069742061667465722072657374617208
:1008100074696E6729006F6B004E6F204C696E65BE
:10082000204E756D62657220776974682063686513
:10083000636B73756D2C204C617374204C696E650D
:100840003A20004E6F20436865636B73756D2077A7
:10085000697468206C696E65206E756D6265722CB6
:10086000204C617374204C696E653A2000636865A2
:10087000636B73756D206D69736D617463682C2093
:100880004C617374204C696E653A20004C696E654A
:10089000204E756D626572206973206E6F74204CF6
:1008A000617374204C696E65204E756D6265722BA4
:1008B000312C204C617374204C696E653A20004DD8
:1008C00031313000446F6E6520736176696E672048
:1008D00066696C652E006F6B004D32390020205028
:1008E0006C616E6E6572427566666572427974659A
:1008F000733A20002046726565204D656D6F7279F0
:100900003A20004A756C20333020323031330043B6
:100910006F6D70696C65643A20004275696C642D76
:100920004D652D4D61726C696E00207C204175749F
:10093000686F723A20004D61726C696E2D4D6F6E5A
:100940002C203235204D617220323031332031334A
:100950003A31343A3439202D30373030202D203997
:10096000663238363263653438393237316630654D
:10097000356462643030663036653465396266628B
:100980003637306166323600204C61737420557002
:1009900064617465643A2000312E302E30004D6160
:1009A000726C696E200020536F66747761726520E7
:1009B000526573657400205761746368646F6720C3
:1009C0005265736574002042726F776E206F757484
:1009D000205265736574002045787465726E616C91
:1009E00020526573657400506F776572557000739F
:1009F00074617274002200656E717565696E67209E
:100A000022002200656E717565696E67202200659F
:100A100063686F3A0020746F6F206C6F6E6720659B
:100A20007874727573696F6E2070726576656E7416
:100A300065640020636F6C642065787472757369F7
:100A40006F6E2070726576656E746564007C3C3EE6
:100A50005E2B3D3F2F5B5D3B2C2A225C0045313AEB
:100A6000200045303A20005A3A2000593A200058D8
:100A70003A20004D53312C4D53322050696E730A89
:100A80000024F404D9201BC40C5C0E9804C4095F34
:100A90000265077101F405F900FB04B300480487FF
:100AA00000C10369005803550003034500BE023A24
:100AB000008402310053022A00290225000402208A
:100AC00000E4011C00C8011900AF011700980114CF
:100AD0000084011300710110006101100051010E2A
:100AE0000043010D0036010B002B010B0020010B10
:100AF00000150109000C01090003010800FB0008B2
:100B000000F3000800EB000700E4000600DE00062A
:100B100000D8000600D2000600CC000500C7000582
:100B200000C2000500BD000400B9000400B50004C7
:100B300000B1000400AD000400A9000400A50003FA
:100B400000A20003009F0004009B00030098000324
:100B5000009500020093000300900003008D000246
:100B6000008B00030088000200860002008400035E
:100B700000810002007F0002007D0002007B000275
:100B80000079000200770001007600020074000284
:100B90000072000100710002006F0002006D000190
:100BA000006C0002006A0001006900020067000199
:100BB000006600010065000100640002006200019F
:100BC0000061000100600001005F0002005D0001A3
:100BD000005C0001005B0001005A000100590001A7
:100BE00000580001005700010056000100550001A7
:100BF00000540001005300000053000100520001A6
:100C00000051000100500001004F0001004E0000A3
:100C1000004E0001004D0001004C0001004B00009F
:100C2000004B0001004A000100490001004800009B
:100C30000048000100470001004600000046000196
:100C40000045000000450001004400010043000091
:100C5000004300010042000000420001004100008A
:100C60000041000100400001003F0000003F000182
:100C7000003E0000003E0001003D0000003D00017C
:100C8000003C0000003C0000003C0001003B000074
:100C9000003B0001003A0000003A0001003900006A
:100CA0000039000100380000003800000038000161
:100CB0000037000000370001003600000036000059
:100CC000003600010035000000350000003500014D
:100CD0000034000000340000003400010033000044
:100CE0000033000000330001003200000032000039
:100CF000003200010031000000310000003100012D
:100D0000003000000030000000300001002F000023
:100D1000002F0000002F0000002F0001002E000017
:100D2000002E0000002E0001002D0000002D00000C
:100D3000002D0000002D0001002C0000002C000000
:100D4000002C0000002C0001002B0000002B0000F4
:100D5000002B0000002B0001002A0000002A0000E8
:100D6000002A0000002A00010029000000290000DC
:100D700000290000002900000029000100280000CF
:100D800000280000002800000028000000280001C2
:100D900000270000002700000027000000270000B7
:100DA00000270001002600000026000000260000A9
:100DB000002600000026000100250000002500009C
:100DC000002500000025000000250000002500018E
:100DD0000024000000240000002400000024000083
:100DE0000024000100230000002300000023000075
:100DF0000023000000230000002300000023000166
:100E0000002200000022000000220000002200005A
:100E1000002200000022000100210000002100004B
:100E2000002100000021000000210000002100003E
:100E30000021000100200000002000000020000030
:100E40000020000000200000002000000020000022
:100E500000200001001F0000001F0000001F000014
:100E6000001F0000001F0000001F0000001F000105
:100E7000001E0000001E0000001E0000001E0000FA
:100E80000024F4D43050C38E20C2A24017828B704D
:100E900011127A910D816CD90AA861E108C75866D0
:100EA00007615143061E4B5D05C145A7041A411158
:100EB00004093D9803713931034036DB02653391F3
:100EC00002D4305402802E1D02632CEE01752AC517
:100ED00001B028A001102781018F2564012B244B2C
:100EE00001E0223401AC211F018D200D01801FFC87
:100EF00000841EED00971DDF00B81CD200E61BC663
:100F000000201BBC00641AB200B219A8000A19A084
:100F1000006A189900D117910040178B00B516840C
:100F20000031167E00B31579003A157300C7146FAF
:100F30000058146A00EE1366008813630025135EE0
:100F400000C7125B006C12570015125400C11151FA
:100F50000070114F0021114B00D61049008D104731
:100F6000004610440002104200C00F4000800F3EB7
:100F700000420F3C00060F3B00CB0E3800930E37AB
:100F8000005C0E3500270E3400F30D3200C10D3128
:100F900000900D3000600D2E00320D2D00050D2C3F
:100FA00000D90C2B00AE0C2900850C29005C0C2705
:100FB00000350C27000E0C2600E80B2400C40B247F
:100FC00000A00B23007D0B23005A0B2100390B21BD
:100FD00000180B2000F80A1F00D90A1E00BB0A1EC9
:100FE000009D0A1D00800A1D00630A1C00470A1BA1
:100FF000002C0A1B00110A1A00F7091A00DD091952
:1010000000C4091900AB091900920917007B0918DF
:1010100000630917004C091600360916002009164E
:10102000000A091500F5081500E0081400CC0814A2
:1010300000B8081400A4081400900813007D0812DA
:10104000006B0813005808120046081200340811FB
:1010500000230811001208110001081100F0071008
:1010600000E0071000D0071000C0071000B0070F05
:1010700000A107100091070E0083070F0074070FEF
:101080000065070E0057070E0049070E003B070DCD
:10109000002E070E0020070D0013070D0006070D98
:1010A00000F9060C00ED060D00E0060C00D4060C5D
:1010B00000C8060C00BC060C00B0060C00A4060B11
:1010C0000099060C008D060B0082060B0077060BBC
:1010D000006C060B0061060A0057060B004C060A5E
:1010E0000042060A0038060A002E060A0024060AF4
:1010F000001A060A001006090007060A00FD050985
:1011000000F4050900EB050900E2050900D905090D
:1011100000D0050900C7050900BE050900B505088E
:1011200000AD050800A50509009C05080094050808
:10113000008C050800840508007C0508007405087B
:10114000006C050700650508005D050700560508E9
:10115000004E050700470507004005080038050751
:1011600000310507002A050700230507001C0506B6
:1011700000160507000F0507000805060002050711
:1011800000FB040600F5040700EE040600E8040670
:1011900000E2040700DB040600D5040600CF0406C5
:1011A00000C9040600C3040600BD040600B7040617
:1011B00000B1040500AC040600A6040600A0040566
:1011C000009B04060095040500900406008A0405AF
:1011D0000085040500800406007A040500750405F6
:1011E00000700405006B0405006604050061040539
:1011F000005C04050057040500520405004D040579
:101200000048040500430405003E0404003A0405B8
:101210000035040500300404002C040500270404F4
:1012200000230405001E0404001A0404001604052B
:1012300000110404000D0404000904050004040462
:101240000000040400FC030400F8030400F4030499
:1012500000F0030400EC030400E8030400E40304CA
:1012600000E0030400DC030400D8030400D40304FA
:1012700000D0030400CC030400C8030300C503032B
:10128000006563686F3A00656E6473746F707320F5
:101290006869743A205A00205A3A00656E64737483
:1012A0006F7073206869743A20590020593A0065BC
:1012B0006E6473746F7073206869743A20580020EC
:1012C000583A00656E6473746F7073206869743A7D
:1012D00020004572726F723A004572723A204D4199
:1012E0005854454D50204245440054656D70657218
:1012F00061747572652068656174656420626564F7
:10130000207377697463686564206F66662E204D6C
:10131000415854454D502074726967676572656421
:10132000202121004572723A204D494E54454D50BE
:10133000003A204578747275646572207377697419
:1013400063686564206F66662E204D494E54454D96
:101350005020747269676765726564202100457268
:10136000723A204D415854454D50003A204578740A
:101370007275646572207377697463686564206F41
:1013800066662E204D415854454D50207472696751
:101390006765726564202100202D20496E76616C9E
:1013A0006964206578747275646572206E756D620B
:1013B0006572202100504944204175746F74756E28
:1013C000652066696E6973686564212050757420B4
:1013D000746865204B702C204B6920616E64204B33
:1013E0006420636F6E7374616E747320696E746FC2
:1013F00020436F6E66696775726174696F6E2E68DF
:1014000000504944204175746F74756E65206661A3
:10141000696C6564212074696D656F757400204086
:101420003A006F6B20543A006F6B20423A005049EB
:1014300044204175746F74756E65206661696C65D2
:1014400064212054656D70657261747572652074D5
:101450006F6F206869676800204B643A2000204B5A
:10146000693A2000204B703A200020436C61736978
:10147000632050494420002054753A2000204B75C9
:101480003A2000206D61783A2000206D696E3A2084
:101490000020643A200020626961733A20002D2DFB
:1014A0003A2D2D002D2D2D005344002059000120F0
:1014B0000046697273742052756E2054657374000F
:1014C0004E6F2043617264005072696E74206672C0
:1014D0006F6D2053440053746F70205072696E74A6
:1014E00000526573756D65205072696E74005061AD
:1014F000757365205072696E7400436F6E74726FFD
:101500006C00507265706172650054756E650049BB
:101510006E666F2073637265656E00473238004DEA
:101520003234004D323320257300052E2E004D61DC
:10153000696E004D3834205820592045005265739B
:10154000746F7265204661696C73616665004C6FEB
:101550006164206D656D6F72790053746F726520E0
:101560006D656D6F7279004D6F74696F6E005465B3
:101570006D7065726174757265004D61696E0045CC
:1015800073746570732F6D6D004573746570732F80
:101590006D6D005A73746570732F6D6D005A73749E
:1015A0006570732F6D6D005973746570732F6D6D59
:1015B000005973746570732F6D6D00587374657086
:1015C000732F6D6D005873746570732F6D6D0041CE
:1015D0002D7265747261637400412D72657472615D
:1015E000637400416D6178206500416D617820650C
:1015F00000416D6178207A00416D6178207A004168
:101600006D6178207900416D6178207900416D61CC
:1016100078207800416D61782078005654726176A8
:10162000206D696E005654726176206D696E0056A9
:101630006D696E00566D696E00566D6178206500AB
:10164000566D6178206500566D6178207A00566D80
:101650006178207A00566D6178207900566D617846
:10166000207900566D6178207800566D6178207879
:101670000056652D6A65726B0056652D6A65726B42
:1016800000567A2D6A65726B00567A2D6A65726B08
:10169000005678792D6A65726B005678792D6A65E7
:1016A000726B00416363656C00416363656C00436A
:1016B0006F6E74726F6C0050726568656174204162
:1016C000425320436F6E66005072656865617420F6
:1016D000504C4120436F6E66005049442D430050EA
:1016E00049442D43005049442D44005049442D4461
:1016F000005049442D49005049442D490050494467
:101700002D50005049442D50002002204661637442
:101710000020022046616374002002204D617800A1
:101720002002204D6178002002204D696E002002C9
:10173000204D696E004F6666004F6E20004F666652
:10174000004F6E20004175746F74656D70004661C6
:101750006E2073706565640046616E207370656508
:1017600064004E6F7A7A6C65004E6F7A7A6C650011
:10177000436F6E74726F6C0053746F7265206D6589
:101780006D6F7279004E6F7A7A6C65004E6F7A7A5F
:101790006C650046616E2073706565640046616E1D
:1017A0002073706565640054656D70657261747551
:1017B00072650053746F7265206D656D6F7279008C
:1017C0004E6F7A7A6C65004E6F7A7A6C650046616E
:1017D0006E2073706565640046616E207370656588
:1017E000640054656D7065726174757265004D6F4B
:1017F0007665204178697300436F6F6C646F776E14
:1018000000507265686561742041425300507265F2
:101810006865617420504C4100473238004175744E
:101820006F20486F6D65004D383400446973616204
:101830006C65205374657070657273004D61696EDC
:10184000004D6F766520302E316D6D004D6F7665E1
:1018500020316D6D004D6F76652031306D6D00501B
:1018600072657061726500457874727564657200A6
:101870004D6F7665205A004D6F76652059004D6F8B
:1018800076652058004D6F76652041786973004574
:1018900078747275646572005A0059005800466C7D
:1018A0006F7700466C6F770046616E2073706565D8
:1018B000640046616E207370656564004E6F7A7ACD
:1018C0006C65004E6F7A7A6C6500537065656400D4
:1018D0005370656564004D61696E004361726420F8
:1018E00072656D6F766564004361726420696E7322
:1018F00065727465640000002100240027002A003E
:101900002D003000330001010000040107010A012D
:1019100000002200250028002B002E00310034009A
:1019200002010000050108010B0100002000230056
:10193000260029002C002F003200000100000301C6
:101940000601090105050505070508080808020242
:1019500002020A0A08080404040401010101010149
:1019600001010303030303030303040707070C0C2C
:101970000C0C0C0C0C0C02020202060606060606F3
:1019800006060B0B0B0B0B0B0B0B01021020200898
:1019900008102040102040800201020108040201CA
:1019A0000102040810204080804020100804020139
:1019B0008004020180402010080402010804020192
:1019C0000102040810204080010204081020408019
:1019D0000000090A02080B0C0D07060304010000B1
:1019E00000000000000000000000000000000000F7
:1019F00000000000000000000000000011100F00B7
:101A000000000000000000000000000000000000D6
:101A100000000000000002494E46494E4954594E0C
:101A2000414ECDCCCC3D0AD7233C17B7D13877CC2B
:101A30002B329595E6241FB14F0A0000204100008B
:101A4000C84200401C4620BCBE4CCA1B0E5AAEC544
:101A50009D74E927452AE2B98EBE402A11241FBE93
:101A6000CFEFD1E2DEBFCDBF00E00CBF14E0A0E0BD
:101A7000B2E0E8EAFDE901E00BBF02C007900D9279
:101A8000AC3AB107D9F71BBE12E1ACEAB4E001C031
:101A90001D92AA38B107E1F71AE1CAE5DAE104C0FC
:101AA0002297FE010E947ACEC235D107C9F70E9463
:101AB00076C50C94C8CE0C940000A0E0B0E0E3E63C
:101AC000FDE00C9497CEEC015B016115710519F0F6
:101AD000FB0191838083F9908F2D90E00E947ECE50
:101AE000892BC9F7FDE2FF1621F4F990EE24E39467
:101AF00005C02BE2F21609F4F990EE248E01015094
:101B00001040C80167E17AE143E050E072D2892BCE
:101B1000F9F48E010E5F1F4FC8016AE17AE145E0DA
:101B200050E067D2892B19F48E01095F1F4FA11471
:101B3000B10419F0F50111830083E0FC04C070E0EA
:101B400090E080E813C070E090E080E86FEF07C19C
:101B5000C8016FE17AE143E050E04BD2892B69F490
:101B6000A114B10429F470E090E080EC6FE7F7C0B5
:101B70002296F501D183C083F6CF8824992440E0D2
:101B800050E060E070E0EF2DE053EA30A0F5F2E0C5
:101B9000EF2A8E2D90E09C0128703070E2FE06C086
:101BA000232B79F50894811C911C2BC0232B19F051
:101BB000089481089108DB01CA0112E0880F991F7F
:101BC000AA1FBB1F1A95D1F7480F591F6A1F7B1F09
:101BD000440F551F661F771F4E0F511D611D711D4C
:101BE000483929E9520729E9620729E1720748F0D3
:101BF00084E0E82A06C0EE3F31F4E3FC39C098E007
:101C0000E92AF990C0CFE53311F0E53189F5299142
:101C10002D3219F4E0E1EE2A05C02B3219F081E0F3
:101C200090E003C0299182E090E0E22FE053EA3097
:101C300018F0C81BD90B1CC020E030E0FCE02038B5
:101C40003F075CF4C901880F991F880F991F280F5F
:101C5000391F220F331F2E0F311DE991E053EA3057
:101C600068F3E4FE03C0309521953F4F820E931E2A
:101C7000CE2CDD24E1FE07C0A114B10421F0219790
:101C8000F501D183C083CB01BA010E94E3CA7B0175
:101C90008C01F3E0CF22DD2423E0C216D10421F42D
:101CA00017FB109517F9109557016801C801B70186
:101CB00020E030E040E050E00E9443CA882309F46D
:101CC0004AC097FE0DC026E3E22E2AE1F22E909440
:101CD000819491089394C0E2D0E000E010E012C03B
:101CE0009EE4E92E9AE1F92EF6CFF7012591359180
:101CF00045915491C601B5010E9423CD5B016C0151
:101D00008C1A9D0A8C169D0684F7D595C7950F5F92
:101D10001F4F0630110529F08CEF9FEFE80EF91EDA
:101D2000F1CFC501D6017C018D018C2D880F8D2D41
:101D3000881F8F3F51F0C601B50120E030E040E040
:101D400050E00E9443CA882331F482E290E09093ED
:101D50008912809388127E2D9F2D802F612F272F2F
:101D6000392F482F562FB901CA01CDB7DEB7ECE0A5
:101D70000C94B3CE2F923F925F926F927F928F928C
:101D80009F92AF92BF92CF92DF92EF92FF920F930A
:101D90001F93CF93DF938C011B01EA01611571053D
:101DA00019F0FB0191838083209749F0CE010297BF
:101DB000839728F020E030E040E050E0F6C0F801E2
:101DC000A1908F018A2D90E00E947ECE892BB9F7D9
:101DD000FDE2AF1631F4F801A1908F015524539420
:101DE00007C0FBE2AF1619F4F801A1908F0155244A
:101DF000209719F0C031D105C1F4F0E3AF1679F4A2
:101E0000F8018081883711F0883549F4F801A18004
:101E10000E5F1F4FF2E05F2AC0E1D0E006C02097BE
:101E200021F480E3A816E9F427C0C830D10531F1C8
:101E3000C930D10524F4C230D10531F50CC0CA3007
:101E4000D10589F0C031D105F9F4C12CD12CE12C98
:101E5000B8E0FB2E28C0C12CD12CE12CA0E4FA2E36
:101E600022C0CAE0D0E0FCECCF2EFCECDF2EFCEC74
:101E7000EF2EFCE0FF2E17C0C8E0D0E0C12CD12C23
:101E8000E12CE0E1FE2E0FC09E01442737FD409576
:101E9000542F60E070E080E090E80E943BCEC901E2
:101EA000DA016C017D0120E030E040E050E060E0CC
:101EB0003E01882477FC8094982C70EDB72EBA0CE4
:101EC000E9E0EB1570F48A2D81548A3118F499EC0D
:101ED000B92E06C08A2D81568A3150F589EAB82E6E
:101EE000BA0C8B2D90E08C179D0714F56F3FE1F035
:101EF000C216D306E406F506B0F0CA01B901A40182
:101F000093010E94F5CD9B01AC012B0D311D411DAC
:101F1000511D2130F0E03F07F0E04F07F0E85F0788
:101F200010F461E001C06FEFF801A1908F01C5CFFF
:101F30002114310481F0662331F001501040F10189
:101F40001183008308C051FE1AC002501040F101F5
:101F50001183008314C067FF12C050FC05C02FEF2F
:101F60003FEF4FEF5FE704C020E030E040E050E893
:101F700082E290E0909389128093881216C050FEFE
:101F800008C050954095309521953F4F4F4F5F4F7A
:101F90000CC057FF0AC082E290E0909389128093B0
:101FA00088122FEF3FEF4FEF5FE7B901CA01DF91D2
:101FB000CF911F910F91FF90EF90DF90CF90BF9046
:101FC000AF909F908F907F906F905F903F902F90F9
:101FD0000895FB01DC0105900D920020E1F70895C2
:101FE000FC0105900020E9F7809590958E0F9F1FCA
:101FF0000895FB01DC014150504088F08D918134FF
:102000001CF08B350CF4805E659161341CF06B35EF
:102010000CF4605E861B611171F3990B0895881BA7
:10202000FCCFFB01DC014150504048F005900D927F
:102030000020C9F701C01D9241505040E0F70895BB
:10204000FB0155915523A9F0BF01DC014D914517C6
:102050004111E1F759F4CD010590002049F04D916F
:1020600040154111C9F3FB014111EFCF81E090E030
:1020700001970895FB01DC0104C08D910190801946
:1020800021F441505040C8F7881B990B0895FB017B
:10209000DC0102C001900D9241505040D8F70895E4
:1020A000FB01DC010D900020E9F7119701900D92E2
:1020B0000020E1F70895FC018191861721F0882323
:1020C000D9F7992708953197CF010895FB01DC01D5
:1020D00001900D920020E1F70895FB01DC014150D1
:1020E000504030F08D910190801919F40020B9F71B
:1020F000881B990B0895FB01DC014150504048F0CA
:1021000001900D920020C9F701C01D92415050402E
:10211000E0F70895AEE0B0E0E0E9F0E10C949FCE86
:102120000E891F898EE08C831A8309838FEF9FE7C6
:102130009E838D839E01265E3F4FCE010196688D62
:10214000798DA9010AD02F813885020F131FF8015C
:1021500010822E96E4E00C94BBCEABE0B0E0E3EB53
:10216000F0E10C9491CE3C012B015A01FC01178245
:102170001682838181FD03C06FEF7FEFB9C19AE0C2
:10218000892E1E010894211C311CF3012381F201C8
:1021900023FD859123FF81912F01882309F4A5C197
:1021A000853239F423FD859123FF81912F018532FA
:1021B00021F490E0B301B7D1E8CF982FFF24EE24AB
:1021C0009924FFE1FF15D0F09B3269F09C3228F48E
:1021D000903259F0933291F40EC09D3249F0903311
:1021E00069F441E024C052E0F52A84E0F82A28C0CE
:1021F00098E0F92A25C0E0E1FE2A22C0F7FC29C0B8
:10220000892F80538A3070F4F6FE05C0989C902C7C
:102210001124980E15C0E89CE02C1124E80EF0E281
:10222000FF2A0EC09E3229F4F6FC5FC140E4F42A76
:1022300007C09C3619F450E8F52A02C0983649F4D4
:10224000F20123FD959123FF91912F01992309F02C
:10225000B8CF892F8554833018F08052833038F4FA
:1022600044E050E0A40EB51E5FE359830FC09336DF
:1022700031F0933779F0933509F052C01FC0F50162
:102280008081898342E050E0A40EB51E610101E027
:1022900010E011C0F501C080D180F6FC03C06FEFE3
:1022A0007FEF02C0692D70E042E050E0A40EB51E41
:1022B000C6012ED18C015FE7F52213C0F501C08065
:1022C000D180F6FC03C06FEF7FEF02C0692D70E094
:1022D00042E050E0A40EB51EC6010FD18C0150E8BB
:1022E000F52AF3FE06C018C080E290E0B3011BD1CE
:1022F000EA948E2D90E008171907B0F30DC0F6018F
:10230000F7FC8591F7FE81916F0190E0B3010BD14D
:10231000E110EA94015010400115110581F7E2C067
:10232000943611F0993661F5F7FE08C0F501208169
:1023300031814281538184E090E00AC0F5018081BF
:1023400091819C01442737FD4095542F82E090E015
:10235000A80EB91E9FE6F92257FF09C05095409577
:10236000309521953F4F4F4F5F4FE0E8FE2ACA015D
:10237000B901A1012AE030E002D1D82ED2183FC025
:10238000953729F41F2D1F7E2AE030E01DC01F2D38
:10239000197F9F3661F0903720F4983509F0A5C079
:1023A0000FC0903739F0983709F09FC004C028E07B
:1023B00030E00AC0106114FD146020E130E004C078
:1023C00014FD166020E132E017FF08C0F5016081BE
:1023D00071818281938144E050E008C0F5018081E1
:1023E0009181BC0180E090E042E050E0A40EB51E77
:1023F000A101C5D0D82ED2188FE7F82EF122F6FE13
:102400000BC05EEFF522D91438F4F4FE07C0F2FCDD
:1024100005C08FEEF82202C01D2D01C0192DF4FE5B
:102420000DC0FE01ED0DF11D8081803319F499EE90
:10243000F92208C01F5FF2FE05C003C08F2D867809
:1024400009F01F5F0F2DF3FC13C0F0FE0EC01E1528
:1024500010F09D2C0AC09D2C9E0C911A1E2D05C0BB
:1024600080E290E0B3015FD01F5F1E15C8F304C087
:102470001E1510F4E11A01C0EE2404FF0EC080E323
:1024800090E0B30150D002FF1BC001FD03C088E7FC
:1024900090E00EC088E590E00BC0802F867881F038
:1024A00001FF02C08BE201C080E2F7FC8DE290E008
:1024B000B30139D005C080E390E0B30134D09A94E1
:1024C000D914C8F3DA94F101ED0DF11D808190E08B
:1024D000B30129D0DD20B1F705C080E290E0B3015F
:1024E00022D0EA94EE20C9F750CEF30166817781BD
:1024F000CB012B96E2E10C94ADCEFC01059061502E
:1025000070400110D8F7809590958E0F9F1F089509
:10251000FC016150704001900110D8F780959095B2
:102520008E0F9F1F08950F931F93CF93DF938C01FE
:10253000EB018B8181FF1BC082FF0DC02E813F818B
:102540008C819D812817390764F4E881F981019312
:10255000F983E88306C0E885F985802F1995892BD2
:1025600031F48E819F8101969F838E8302C00FEF8D
:102570001FEFC801DF91CF911F910F910895FA01CC
:10258000AA27283051F1203181F1E8946F936E7FB2
:102590006E5F7F4F8F4F9F4FAF4FB1E03ED0B4E0A3
:1025A0003CD0670F781F891F9A1FA11D680F791FE4
:1025B0008A1F911DA11D6A0F711D811D911DA11DF5
:1025C00020D009F468943F912AE0269F1124301905
:1025D000305D3193DEF6CF010895462F4770405DA0
:1025E0004193B3E00FD0C9F7F6CF462F4F70405D4F
:1025F0004A3318F0495D31FD4052419302D0A9F7AA
:10260000EACFB4E0A6959795879577956795BA95A3
:10261000C9F700976105710508959B01AC010A2E69
:1026200006945795479537952795BA95C9F7620F40
:10263000731F841F951FA01D0895FC011282138231
:102640000895FC018381882311F081E0828308953D
:10265000FC018281811112820895CF93DF93DC0106
:10266000FC01EB55FE4F808191810097C9F10197E4
:1026700091838083ED01CC5ADF4FFD01ED58FF4F70
:102680008BE1019009928150E1F7FD01EE5AFF4F75
:10269000AF58BF4F8D919C911197A157B040918336
:1026A0008083FD01ED58FF4F20E030E0AD014B5538
:1026B0005E4F10C02F5F3F4FEF01DF015F968BE150
:1026C0000D9009928150E1F7858D968D3297918317
:1026D0008083B196DA018D919C912817390750F3C8
:1026E000DF91CF910895FC0184E494E0918380838D
:1026F0008781882321F0CF0104960C947663089596
:102700000F931F93CF93DF938C010E942A710E9435
:102710000771C80182539E4F0E947663F8011282AE
:102720008FE291E00E9432488091A109882301F153
:102730001092A10980915B07C82FD0E0CC0FDD1F5C
:10274000CC51DF4E68817981882777FD8095982F5D
:102750000E94E5CA2091950330919603409197031A
:10276000509198030E9451CC181614F419821882C3
:10277000DF91CF911F910F910895CF92DF92EF9249
:10278000FF920F931F93DF93CF93CDB7DEB76F9771
:102790000FB6F894DEBF0FBECDBF8C016B01095A96
:1027A0001F4FD8018C9107551040882321F43FE238
:1027B000E32EF12C03C020E5E22EF12CE00EF11EF9
:1027C00084E494E09A8389831C821B8218861D828C
:1027D000B7016C5F7F4FCE010596A60121E00E94F4
:1027E000626A882391F5E9E3F1E0949108C0809151
:1027F000C00085FFFCCF9093C60031969491992339
:10280000B1F7EFE3F1E0949108C08091C00085FF3B
:10281000FCCF9093C600319694919923B1F709C0EB
:102820008091C00085FFFCCF0894C11CD11C9093FF
:10283000C600F6019081992399F78091C00085FF29
:10284000FCCF8AE08093C6005AC0F801EB55FE4FDA
:10285000208131812A30310508F040C02F5F3F4F81
:102860003183208321503040F90195E0EE0FFF1FA6
:102870009A95E1F7E21BF30BED58FF4FE00FF11FC4
:1028800013C0AF01415E5F4FBF018BE1DB010D90D3
:10289000BD01DA010D92AD018150C1F79291829193
:1028A0003296968F858F7F9721503040BFEF2E3F15
:1028B0003B0739F7D801AD58BF4FF70134968BE18C
:1028C00001900D928150E1F70F581F4FF70182815F
:1028D0009381D8018D939C9301571040D801AC5A35
:1028E000BF4FFE0135968BE101900D928150E1F7CB
:1028F0000E5A1F4F8B819C81F80191838083CE01FA
:102900000196F1DE6F960FB6F894DEBF0FBECDBF15
:10291000CF91DF911F910F91FF90EF90DF90CF90BB
:102920000895EF92FF920F931F938C014EECE42ECB
:1029300041E0F42EE80EF91EC7010E942763C7018B
:102940000E947663F801108211821F910F91FF900F
:10295000EF900895CF92DF92EF92FF920F931F9323
:10296000CF93DF937C016B01DB010D900020E9F731
:102970008D0101501040061B170BEEECF1E0EE0E3E
:10298000FF1ED7011C92E2E3FEEFEE0EFF1ECB010D
:102990006EE470E090DBEC01009731F4F8013197C0
:1029A000EC0DFD1D86010CC060E270E084DB8C0143
:1029B0000F5F1F4FCE016AE270E07DDBFC013197B3
:1029C0008DE081838AE082831382C70186539E4F04
:1029D000B8010E945B6B8EEC91E0E80EF91ED70106
:1029E0008C91882319F1E9E6F1E0949108C0809177
:1029F000C00085FFFCCF9093C60031969491992337
:102A0000B1F7E0E7F1E0949108C08091C00085FF44
:102A1000FCCF9093C600319694919923B1F78091A1
:102A2000C00085FFFCCF8AE08093C600DF91CF9184
:102A30001F910F91FF90EF90DF90CF900895CF936B
:102A4000DF93EC018B81882309F43BC0E8E9F1E0D6
:102A5000949108C08091C00085FFFCCF9093C60080
:102A6000319694919923B1F7CF50DE4F4881598127
:102A70006A817B81C15FD14080E395E02AE030E04C
:102A80000E948228E6E9F1E0949108C08091C0009C
:102A900085FFFCCF9093C600319694919923B1F7AE
:102AA000C751DE4F488159816A817B8180E395E07F
:102AB0002AE030E00E9482288091C00085FFFCCF90
:102AC00012C0E6E8F1E0949108C08091C00085FF53
:102AD000FCCF9093C600319694919923B1F78091E1
:102AE000C00085FFFCCF8AE08093C600DF91CF91C4
:102AF00008952F923F924F925F926F927F928F92A2
:102B00009F92AF92BF92CF92DF92EF92FF920F937C
:102B10001F93DF93CF93CDB7DEB7AC970FB6F89482
:102B2000DEBF0FBECDBF5C014B01FC01838188235A
:102B300009F434C1C50182539E4F0E947663F501AA
:102B400012821A8A1D8A198A188A84E494E09F875F
:102B50008E876EE4C62ED12CCA0CDB1C2FE230E02F
:102B6000A20EB31EF601B182A08221ED3FEFA20EAC
:102B7000B31EF40180818F3209F08DC0C4016FE271
:102B800070E099DA7C010894E11CF11C3E01089484
:102B9000611C711C260152E1252E312C2C0E3D1E8C
:102BA00075C0C7016FE270E086DA6C01009709F426
:102BB00080C0E816F90608F07CC08C010E191F09C8
:102BC000C301B701A80197DA060D171DF80110829D
:102BD000F30107C08091C00085FFFCCF3196909330
:102BE000C60090819923B1F78091C00085FFFCCF8A
:102BF000FAE0F093C600F201608171816115710500
:102C000019F460E070E002C06C5F7F4FC101A30166
:102C100021E00E94626A882371F5E4EDF1E094916D
:102C200008C08091C00085FFFCCF9093C60031960C
:102C300094919923B1F7FE01319607C08091C000AD
:102C400085FFFCCF31969093C60090819923B1F710
:102C5000E2EDF1E0949108C08091C00085FFFCCFC7
:102C60009093C600319694919923B1F78091C0005A
:102C700085FFFCCF8DC02EE030E02C0F3D1FF20110
:102C80003183208376010894E11CF11CE114F104E6
:102C900009F087CF0BC080E590E0A80EB91EF601C1
:102CA000B182A08220EB3FEFA20EB31ED82C092DDB
:102CB00002C0DE2C0F2D8EE490E0A80EB91EF501A7
:102CC0008081918122EB3FEFA20EB31E009719F491
:102CD00080E090E001C004966D2D702F0E942E6B55
:102CE000882339F1E4ECF1E0949108C08091C000B0
:102CF00085FFFCCF9093C600319694919923B1F74C
:102D00008D2D902F9C01F90107C08091C00085FF97
:102D1000FCCF31969093C60090819923B1F781EF53
:102D200091E0A80EB91EF501108211821282138261
:102D300032C0ECEAF1E0949108C08091C00085FFB8
:102D4000FCCF9093C600319694919923B1F78D2DC5
:102D5000902F9C01F90107C08091C00085FFFCCF36
:102D600031969093C60090819923B1F7EAEAF1E099
:102D7000949108C08091C00085FFFCCF9093C6005D
:102D8000319694919923B1F78091C00085FFFCCFD3
:102D90008AE08093C600CE010E96A5DCAC960FB6F5
:102DA000F894DEBF0FBECDBFCF91DF911F910F9181
:102DB000FF90EF90DF90CF90BF90AF909F908F905B
:102DC0007F906F905F904F903F902F9008952F923B
:102DD0003F924F925F926F927F928F929F92AF92AB
:102DE000BF92CF92DF92EF92FF920F931F93DF93E8
:102DF000CF93CDB7DEB7AD970FB6F894DEBF0FBE59
:102E0000CDBF5C014B014DA7FC018381882309F4F0
:102E1000E5C1EEEC4E2EE1E05E2E4A0C5B1CC201D9
:102E20000E947663F50112821A8A1D8A198A188A0D
:102E300084E494E09F878E877EE4C72ED12CCA0C51
:102E4000DB1C8FE290E0A80EB91EF601B182A082D1
:102E500081ED9FEFA80EB91EF40180818F3209F039
:102E600089C0C4016FE270E026D97C010894E11C9E
:102E7000F11C3E010894611C711C160176C0C7014B
:102E80006FE270E018D96C01009709F481C0E81670
:102E9000F90608F07DC08C010E191F09C301B701A6
:102EA000A80129D9060D171DF8011082F30107C0EA
:102EB0008091C00085FFFCCF31969093C600908131
:102EC0009923B1F78091C00085FFFCCFFAE0F09321
:102ED000C600F101608171816115710519F460E02E
:102EE00070E002C06C5F7F4FCE014296A30121E0EB
:102EF0000E94626A882371F5ECE4F2E0949108C0C4
:102F00008091C00085FFFCCF9093C60031969491CC
:102F10009923B1F7FE01319607C08091C00085FF6B
:102F2000FCCF31969093C60090819923B1F7EAE4E3
:102F3000F2E0949108C08091C00085FFFCCF90938F
:102F4000C600319694919923B1F78091C00085FF16
:102F5000FCCF15C18EE090E08C0F9D1FF101918395
:102F6000808376010894E11CF11CE114F10409F05E
:102F700086CF0BC0E0E5F0E0AE0EBF1EF601B182D9
:102F8000A08280EB9FEFA80EB91E082DF92C01C07E
:102F90000E2DF501E25BFF4F9DA5992309F4ADC00D
:102FA000608171816115710519F460E070E002C003
:102FB0006C5F7F4FC201402F5F2D21E00E94626A4B
:102FC000882309F46AC0EFEDF1E0AE0EBF1EF501F3
:102FD00040815181628173818AE090E0A80EB91E20
:102FE000F501408351836283738387E19EEFA80ECE
:102FF000B91EECE3F2E0949108C08091C00085FF17
:10300000FCCF9093C600319694919923B1F7802F0D
:103010009F2D9C01F90107C08091C00085FFFCCF66
:1030200031969093C60090819923B1F7E4E3F2E0E2
:10303000949108C08091C00085FFFCCF9093C6009A
:10304000319694919923B1F780E395E02AE030E03E
:103050000E9482288091C00085FFFCCF8AE0809387
:10306000C600E1EFF1E0AE0EBF1EF5011082118245
:1030700012821382E6E2F2E0949108C08091C000CF
:1030800085FFFCCF9093C600319694919923B1F7B8
:103090008091C00085FFFCCF97C0E2E1F2E09491FF
:1030A00008C08091C00085FFFCCF9093C600319688
:1030B00094919923B1F7802F9F2D9C01F90107C0AE
:1030C0008091C00085FFFCCF31969093C60090811F
:1030D0009923B1F7E0E1F2E0949108C08091C0003B
:1030E00085FFFCCF9093C600319694919923B1F758
:1030F0008091C00085FFFCCF42C060817181611565
:10310000710519F460E070E002C06C5F7F4FC2018E
:10311000402F5F2D26E50E94626A882309F033C0A4
:10312000ECEFF1E0949108C08091C00085FFFCCFE6
:103130009093C600319694919923B1F7802F9F2DDB
:103140009C01F90107C08091C00085FFFCCF31963A
:103150009093C60090819923B1F7EAEFF1E0949142
:1031600008C08091C00085FFFCCF9093C6003196C7
:1031700094919923B1F78091C00085FFFCCF8AE03C
:103180008093C60028C081E0F5018083E8EEF1E07D
:10319000949108C08091C00085FFFCCF9093C60039
:1031A000319694919923B1F7F40107C08091C00042
:1031B00085FFFCCF31969093C60090819923B1F79B
:1031C0008091C00085FFFCCF8AE08093C600802FED
:1031D0009F2D0E943FBACE010E9685DAAD960FB6AE
:1031E000F894DEBF0FBECDBFCF91DF911F910F913D
:1031F000FF90EF90DF90CF90BF90AF909F908F9017
:103200007F906F905F904F903F902F900895FC01BA
:1032100081E08183CF0140E0DACDEF92FF920F93FE
:103220001F93CF93DF938C01FC01138286A988231F
:1032300021F0C801C3960E947663F7EAEF2EF1E011
:10324000FF2EE00EF11EC70160E045E30E942361FE
:10325000882309F5E9E3F1E0949108C08091C0006A
:1032600085FFFCCF9093C600319694919923B1F7D6
:10327000EEE8F2E0949108C08091C00085FFFCCF99
:103280009093C600319694919923B1F78091C00034
:1032900085FFFCCF7DC0E801C455DE4FCE01B701EC
:1032A00041E00E94EC6B882341F5CE01B70140E07C
:1032B0000E94EC6B882309F5E9E6F1E0949108C0DF
:1032C0008091C00085FFFCCF9093C6003196949109
:1032D0009923B1F7EBE7F2E0949108C08091C00028
:1032E00085FFFCCF9093C600319694919923B1F756
:1032F0008091C00085FFFCCF4BC0C801C396BE01C2
:103300000E946866882309F5E9E6F1E0949108C017
:103310008091C00085FFFCCF9093C60031969491B8
:103320009923B1F7EBE6F2E0949108C08091C000D8
:1033300085FFFCCF9093C600319694919923B1F705
:103340008091C00085FFFCCF23C081E0F80183831A
:10335000E9E3F1E0949108C08091C00085FFFCCFC3
:103360009093C600319694919923B1F7E0E6F2E08C
:10337000949108C08091C00085FFFCCF9093C60057
:10338000319694919923B1F78091C00085FFFCCFCD
:103390008AE08093C600D801AC5ABF4FF801F3967B
:1033A0008BE101900D928150E1F7F80181A992A97A
:1033B0000E5A1F4FF8019183808302551040C801B7
:1033C0008F96025B1F4FF80191838083DF91CF912D
:1033D0001F910F91FF90EF9008952F923F924F927F
:1033E0005F926F927F929F92AF92BF92CF92DF9245
:1033F000EF92FF920F931F93DF93CF93CDB7DEB77A
:10340000CC55D0400FB6F894DEBF0FBECDBF6C01D7
:10341000662311F525EF31E0C20ED31ED6018C9143
:10342000EBE0FEEFCE0EDF1E882309F4E3C02DEEA5
:1034300031E0C20ED31ED601ED90FD900D911C918E
:10344000E3E1FEEFCE0EDF1E0E94E0C2E616F706B5
:103450000807190708F4CEC025EF31E0C20ED31ECD
:10346000D6011C92EBE0FEEFCE0EDF1ED6011396C6
:103470008C91882339F4C601D0DEF601838188233C
:1034800009F4B8C000D000D0EDB7FEB731967E0188
:103490000894E11CF11CADB7BEB71296FC92EE92F7
:1034A000119780E691E093838283D6019D968D915A
:1034B0009C919E97958384830E948A108701EDB723
:1034C000FEB736960FB6F894FEBF0FBEEDBF57019C
:1034D0000AC0D8018C91992787FD90950E9486CECD
:1034E000F80181938F01F50101900020E9F73197F0
:1034F000EA19FB09802F8E198E175CF303E3A02EC7
:10350000B12CAC0CBD1CC50140E050E060E070E0A7
:103510000E945D6299241DE3E12EF12CEC0EFD1E4C
:103520002E010894411C511CBFE16B2E712C6C0EB6
:103530007D1EA9E52A2EA1E03A2E42C0D8018C9129
:1035400090E00E9486CEF80181938F01D7010D9003
:103550000020E9F71197AE19BF09802F8E198A173D
:103560006CF327968FAD27978E3751F1C701B201C3
:1035700045E050E00E946D10009711F500D000D09A
:10358000EDB7FEB73196ADB7BEB712967C926E928C
:10359000119733822282558244820E948A10EDB7AD
:1035A000FEB736960FB6F894FEBF0FBEEDBFC3014F
:1035B0000E94AB4885E591E00E943248992493949B
:1035C000C501B70140E050E00E948765181614F469
:1035D0008701BCCF992041F48FEF9FEFD6019E96D3
:1035E0009C938E939D9706C0F60185A596A501969E
:1035F00096A785A7C45ADF4F0FB6F894DEBF0FBE5B
:10360000CDBFCF91DF911F910F91FF90EF90DF9091
:10361000CF90BF90AF909F907F906F905F904F90B2
:103620003F902F9008952F923F924F925F926F920A
:103630007F928F929F92AF92BF92CF92DF92EF9242
:10364000FF920F931F93DF93CF93CDB7DEB7CF5881
:10365000D0400FB6F894DEBF0FBECDBF8C013B014A
:103660006A0184E090E0C80ED91EF8017196C75730
:10367000DF4FF983E883C958D040C8010496CA5780
:10368000DF4F99838883C658D040C857DF4F1882D0
:10369000C858D04046E6E42EF12CEC0EFD1EF70192
:1036A0003B96C557DF4FF983E883CB58D04036EFC0
:1036B000832E31E0932E800E911E28EFA22E21E062
:1036C000B22EA00EB11E9EE0292E312C2C0E3D1ED6
:1036D00087E4482E512C4C0E5D1EC2010496C35740
:1036E000DF4F99838883CD58D040E9E3F1E094918E
:1036F000C157DF4F9883CF58D0404EC1F701838523
:10370000482F50E0BA01687170706031710509F09E
:1037100051C1F401208131812130310509F44AC1C0
:103720002230310509F446C1F701DE01119690817E
:10373000903239F08E2F8E19883011F48EE28D93ED
:103740009D933196C557DF4F88819981CB58D040E2
:10375000E817F90761F71C921E86F3018081882320
:1037600029F4C10160E072E00E945010C101B30170
:103770000E945010C101BE016F5F7F4F0E94501028
:10378000C10160E072E00E9450101CA61FA61BA69B
:103790001AA684E494E099A788A7CE018C96B60176
:1037A000AE014F5F5F4F21E00E94626A882309F0FB
:1037B0003FC0F40180819181892BD1F5C157DF4F42
:1037C0009881CF58D040E9E3F1E008C08091C00073
:1037D00085FFFCCF9093C600319694919923B1F761
:1037E000E2E0F2E007C08091C00085FFFCCF319697
:1037F0009093C60090819923B1F78091C00085FF16
:10380000FCCFFAE0F093C600FE01319607C080912C
:10381000C00085FFFCCF31969093C600908199231C
:10382000B1F78091C00085FFFCCF8AE08093C6008D
:10383000C357DF4FA881B981CD58D040FE01BC9657
:103840008BE101900D928150E1F78AA59BA5F201D1
:103850009383828384E494E091838083C801B101DF
:10386000A201E1DEC2010E947313CE0188960E947C
:10387000731392C0953E09F48FC09E3209F48CC038
:103880009F3509F489C0F8019189992331F09E325E
:1038900009F482C09F3509F47FC043FD7DC080E0FC
:1038A0006031710509F481E0F80184A7882349F4A7
:1038B000F7018085873409F06FC081858E3709F460
:1038C0006BC0CA57DF4FA881B981C658D040F701F5
:1038D0008081803241F08E2F8E19883011F48EE273
:1038E0008D9380818D933196C557DF4F8881998163
:1038F000CB58D040E817F90759F71C92F4018081A2
:103900009181009729F5F30107C08091C00085FFE0
:10391000FCCF31969093C60090819923B1F7CA5796
:10392000DF4FE881F981C658D04007C08091C000C0
:1039300085FFFCCF31969093C60090819923B1F713
:103940008091C00085FFFCCFFAE0F093C60024C050
:103950008130910539F4F50180819181019691833F
:1039600080831AC00297C1F4C857DF4FF881C85846
:10397000D0402F2F30E0F501808191812817390741
:10398000F1F0C857DF4FF881C858D040FF5FC857E3
:10399000DF4FF883C858D040C601B701C757DF4F83
:1039A00048815981C958D0400E94876518160CF487
:1039B000A5CE05C0F7019081992309F05BCFC157CF
:1039C000DF4F0FB6F894DEBF0FBECDBFCF91DF91B2
:1039D0001F910F91FF90EF90DF90CF90BF90AF902D
:1039E0009F908F907F906F905F904F903F902F901F
:1039F0000895EF92FF920F931F93DF93CF93CDB76C
:103A0000DEB76F970FB6F894DEBF0FBECDBF7C0157
:103A10008C01025B1F4F805B9F4FF8019183808375
:103A200026EF31E0E20EF31E21E030E0F7012193B2
:103A300031937F011182108228E03EEFE20EF31EE7
:103A4000049640E050E060E070E00E945D62F801A2
:103A500020813181DE011596F90134968BE10190C8
:103A60000D928150E1F7F901828193819C838B83D0
:103A700084E494E09A838983C70165E172E08E0152
:103A80000F5F1F4FA801CFDDC8010E947313F7011C
:103A9000E850FE4F808191816F960FB6F894DEBF9B
:103AA0000FBECDBFCF91DF911F910F91FF90EF908F
:103AB0000895EF92FF920F931F93DF93CF93CDB7AB
:103AC000DEB76F970FB6F894DEBF0FBECDBF7C0197
:103AD0008C01025B1F4F805B9F4FF80191838083B5
:103AE00026EF31E0E20EF31E22E030E0F7013183F1
:103AF00020832AE03EEFE20EF31EF701E850FE4F6E
:103B000060831182049640E050E060E070E00E9423
:103B10005D62F80120813181DE011596F90134964C
:103B20008BE101900D928150E1F7F901828193813F
:103B30009C838B8384E494E09A838983C70165E145
:103B400072E08E010F5F1F4FA8016DDDC8010E945A
:103B500073136F960FB6F894DEBF0FBECDBFCF9133
:103B6000DF911F910F91FF90EF900895EF92FF92D8
:103B70000F931F93DF93CF93CDB7DEB76F970FB639
:103B8000F894DEBF0FBECDBF7C0186EF91E0E80E5A
:103B9000F91EF701118210828AE09EEFE80EF91EED
:103BA00087010D5C1F4FC80140E050E060E070E00D
:103BB0000E945D62DE011596F8018BE101900D9285
:103BC0008150E1F7F70181A992A99C838B8384E45A
:103BD00094E09A838983C70165E172E08E010F5FEB
:103BE0001F4FA80120DDC8010E9473136F960FB606
:103BF000F894DEBF0FBECDBFCF91DF911F910F9123
:103C0000FF90EF9008950F931F93CF93DF93DC0104
:103C1000D3961C92D397D6961C92D697D2961C9286
:103C20001E92D19784E494E0D0969C938E939F97B4
:103C3000AC5ABF4F1C9213961C92A755B040FD0181
:103C4000E05BFF4FAE5ABF4F11961C921E92A255D9
:103C5000B04091838083ED01C159DF4FFE0120E028
:103C600030E0482F1482178213821282408391839E
:103C7000215E3F4F7F9681E02633380799F7A8559C
:103C8000BE4F89E18C9313961C9258961C921B96FA
:103C90001C9213961C92A15DB140FD01E653FE4FAC
:103CA000A453BE4F11961C921E92408391835D9641
:103CB0001D921D921D921C92139718961D921D9293
:103CC0001D921C921397A15FB14012961C921297FD
:103CD00013961C9213971C9211961C9211978D01AA
:103CE00003511E4FF8011082118212821382AB55CC
:103CF000BE4F11961C921E92FE01C90111920197AE
:103D0000E9F7A05BBF4F81E08C93A55FB1409E9621
:103D10001C921E929D970E94E0C268577C4E8F4F66
:103D20009F4FF8016083718382839383DF91CF91EA
:103D30001F910F910895DF93CF93CDB7DEB72897EA
:103D40000FB6F894DEBF0FBECDBF809116029091E2
:103D50001702A0911802B091190289839A83AB834C
:103D6000BC83FE01319684E690E02081F999FECF74
:103D70001FBA92BD81BD20BD0FB6F894FA9AF99A88
:103D80000FBE01968836910511F03196EECFE5E42D
:103D9000F9E02081F999FECF1FBA92BD81BD20BD07
:103DA0000FB6F894FA9AF99A0FBE019688379105E2
:103DB00011F03196EECFE5E3F9E02081F999FECFDD
:103DC0001FBA92BD81BD20BD0FB6F894FA9AF99A38
:103DD0000FBE01968838910511F03196EECFE5E5DA
:103DE000F9E02081F999FECF1FBA92BD81BD20BDB7
:103DF0000FB6F894FA9AF99A0FBE01968839910590
:103E000011F03196EECFE9E6F9E02081F999FECF85
:103E10001FBA92BD81BD20BD0FB6F894FA9AF99AE7
:103E20000FBE01968C39910511F03196EECFEDE67B
:103E3000F9E02081F999FECF1FBA92BD81BD20BD66
:103E40000FB6F894FA9AF99A0FBE0196803A910546
:103E500011F03196EECFE5E6F9E02081F999FECF39
:103E60001FBA92BD81BD20BD0FB6F894FA9AF99A97
:103E70000FBE0196843A910511F03196EECFEDE731
:103E8000F9E02081F999FECF1FBA92BD81BD20BD16
:103E90000FB6F894FA9AF99A0FBE0196883A9105EE
:103EA00011F03196EECFE1E3F9E02081F999FECFF0
:103EB0001FBA92BD81BD20BD0FB6F894FA9AF99A47
:103EC0000FBE01968C3A910511F03196EECFE1E7E5
:103ED000F9E02081F999FECF1FBA92BD81BD20BDC6
:103EE0000FB6F894FA9AF99A0FBE0196803B9105A5
:103EF00011F03196EECFE5E7F9E02081F999FECF98
:103F00001FBA92BD81BD20BD0FB6F894FA9AF99AF6
:103F10000FBE0196843B910511F03196EECFE9E793
:103F2000F9E02081F999FECF1FBA92BD81BD20BD75
:103F30000FB6F894FA9AF99A0FBE0196883B91054C
:103F400011F03196EECFE3E4F7E02081F999FECF4E
:103F50001FBA92BD81BD20BD0FB6F894FA9AF99AA6
:103F60000FBE0196843C910511F03196EECFE4E34B
:103F7000F1E12081F999FECF1FBA92BD81BD20BD2C
:103F80000FB6F894FA9AF99A0FBE0196863C9105FD
:103F900011F03196EECFE6E3F1E12081F999FECF01
:103FA0001FBA92BD81BD20BD0FB6F894FA9AF99A56
:103FB0000FBE0196883C910511F03196EECFE8E3F3
:103FC000F1E12081F999FECF1FBA92BD81BD20BDDC
:103FD0000FB6F894FA9AF99A0FBE01968A3C9105A9
:103FE00011F03196EECFEAE3F1E12081F999FECFAD
:103FF0001FBA92BD81BD20BD0FB6F894FA9AF99A06
:104000000FBE01968C3C910511F03196EECFECE39A
:10401000F1E12081F999FECF1FBA92BD81BD20BD8B
:104020000FB6F894FA9AF99A0FBE01968E3C910554
:1040300011F03196EECFEEE3F1E12081F999FECF58
:104040001FBA92BD81BD20BD0FB6F894FA9AF99AB5
:104050000FBE0196803D910511F03196EECFE6EA54
:10406000F3E02081F999FECF1FBA92BD81BD20BD3A
:104070000FB6F894FA9AF99A0FBE0196843D91050D
:1040800011F03196EECFEAEAF3E02081F999FECF04
:104090001FBA92BD81BD20BD0FB6F894FA9AF99A65
:1040A0000FBE0196883D910511F03196EECFEEEAF4
:1040B000F3E02081F999FECF1FBA92BD81BD20BDEA
:1040C0000FB6F894FA9AF99A0FBE8B3D910519F044
:1040D00001963196EECF80911A0290911B02A09129
:1040E0001C02B0911D028D839E83AF83B887FE01B1
:1040F000359684E690E02081F999FECF1FBA92BDF3
:1041000081BD20BD0FB6F894FA9AF99A0FBE873692
:10411000910519F001963196EECFEBE9F2E094911A
:1041200008C08091C00085FFFCCF9093C6003196F7
:1041300094919923B1F7E5EAF4E0949108C0809155
:10414000C00085FFFCCF9093C600319694919923CF
:10415000B1F78091C00085FFFCCF8AE08093C60054
:1041600028960FB6F894DEBF0FBECDBFCF91DF917A
:104170000895DF93CF93CDB7DEB7E0970FB6F894ED
:10418000DEBF0FBECDBFDE011196E4EFF3E080E1AC
:1041900001900D928150E1F7DE015196E4EEF3E0DB
:1041A00080E101900D928150E1F7DE019196E4EDFE
:1041B000F3E080E101900D928150E1F789819A81CD
:1041C000AB81BC818093450990934609A093470930
:1041D000B093480989899A89AB89BC89809335094C
:1041E00090933609A0933709B093380989A19AA111
:1041F000ABA1BCA18093550990935609A093570990
:10420000B09358098D819E81AF81B885809349090B
:1042100090934A09A0934B09B0934C098D899E89CC
:10422000AF89B88D8093390990933A09A0933B09DF
:10423000B0933C098DA19EA1AFA1B8A58093590967
:1042400090935A09A0935B09B0935C0989859A857C
:10425000AB85BC8580934D0990934E09A0934F097F
:10426000B0935009898D9A8DAB8DBC8D80933D099B
:1042700090933E09A0933F09B093400989A59AA560
:10428000ABA5BCA580935D0990935E09A0935F09DF
:10429000B09360098D859E85AF85B889809351095B
:1042A00090935209A0935309B09354098D8D9E8D1C
:1042B000AF8DB8A18093410990934209A09343091F
:1042C000B09344098DA59EA5AFA5B8A980936109B7
:1042D00090936209A0936309B09364090E94CF4D43
:1042E00080E090E8ABE3B5E48093690990936A09B4
:1042F000A0936B09B0936C0980936D0990936E093C
:10430000A0936F09B093700920E030E040E050E0E6
:1043100020936509309366094093670950936809B3
:1043200080E29EE4A0E0B0E08093310990933209EE
:10433000A0933309B093340920937D0930937E090B
:1043400040937F095093800980E090E0A0EAB1E4B7
:104350008093710990937209A0937309B0937409C3
:104360008DEC9CECACECBEE38093750990937609E0
:10437000A0937709B093780980E090E0A0EAB0E4D8
:104380008093790990937A09A0937B09B0937C0973
:1043900020934B0730934C0740934D0750934E07A3
:1043A00020934707309348074093490750934A07A3
:1043B00020934307309344074093450750934607A3
:1043C00084EB90E0909335118093341186E490E073
:1043D00090933711809336112FEF30E030933911DD
:1043E0002093381180EF90E090933B1180933A1125
:1043F00084E690E090933D1180933C1130933F11FF
:1044000020933E118AE999E9A1EBB1E48093A603D8
:104410009093A703A093A803B093A90361E77DE35A
:104420008AE89FE30E9434796093AA037093AB03F8
:104430008093AC039093AD0360E070E084EE92E46F
:104440000E9440796093AE037093AF038093B003F2
:104450009093B1030E94FB7880E090E0A0E8BFE376
:104460008093B2039093B303A093B403B093B503C6
:10447000EBE9F2E0949108C08091C00085FFFCCF89
:104480009093C600319694919923B1F7E1EAF2E056
:10449000949108C08091C00085FFFCCF9093C60026
:1044A000319694919923B1F78091C00085FFFCCF9C
:1044B0008AE08093C600E0960FB6F894DEBF0FBE88
:1044C000CDBFCF91DF910895CF93DF93CBE9D2E0B9
:1044D000FE01949108C08091C00085FFFCCF9093AD
:1044E000C600319694919923B1F7E5E9F4E09491EF
:1044F00008C08091C00085FFFCCF9093C600319624
:1045000094919923B1F78091C00085FFFCCF8AE098
:104510008093C600FE019491EBE9F2E008C080911F
:10452000C00085FFFCCF9093C600319694919923EB
:10453000B1F7409145095091460960914709709142
:1045400048098DE894E00E94922E409149095091CB
:104550004A0960914B0970914C098AE894E00E94E5
:10456000922E40914D0950914E0960914F097091E2
:10457000500987E894E00E94922E40915109509191
:104580005209609153097091540984E894E00E94A3
:10459000922EEEE1F2E007C08091C00085FFFCCFD3
:1045A00031969093C60090819923B1F78091C00015
:1045B00085FFFCCF8AE08093C600FE019491EBE971
:1045C000F2E008C08091C00085FFFCCF9093C60048
:1045D000319694919923B1F7EAE6F4E0949108C0FA
:1045E0008091C00085FFFCCF9093C60031969491D6
:1045F0009923B1F78091C00085FFFCCF8AE08093BA
:10460000C600FE019491EBE9F2E008C08091C00081
:1046100085FFFCCF9093C600319694919923B1F712
:1046200040913509509136096091370970913809E8
:1046300081E694E00E94922E4091390950913A0906
:1046400060913B0970913C098EE594E00E94922EA6
:1046500040913D0950913E0960913F097091400998
:104660008BE594E00E94922E4091410950914209BD
:10467000609143097091440988E594E00E94922E6C
:10468000EEE1F2E007C08091C00085FFFCCF3196DB
:104690009093C60090819923B1F78091C00085FF67
:1046A000FCCF8AE08093C600FE019491EBE9F2E032
:1046B00008C08091C00085FFFCCF9093C600319662
:1046C00094919923B1F7EAE3F4E0949108C08091C2
:1046D000C00085FFFCCF9093C6003196949199233A
:1046E000B1F78091C00085FFFCCF8AE08093C600BF
:1046F000FE019491EBE9F2E008C08091C00085FFD3
:10470000FCCF9093C600319694919923B1F74091D4
:10471000550950915609609157097091580981E3E4
:1047200094E00E94A42E4091590950915A09609139
:104730005B0970915C098EE294E00E94A42E409186
:104740005D0950915E0960915F09709160098BE28B
:1047500094E00E94A42E40916109509162096091F9
:1047600063097091640988E294E00E94A42EEEE14E
:10477000F2E007C08091C00085FFFCCF3196909396
:10478000C60090819923B1F78091C00085FFFCCFCE
:104790008AE08093C600FE019491EBE9F2E008C044
:1047A0008091C00085FFFCCF9093C6003196949114
:1047B0009923B1F7E3EFF3E0949108C08091C00032
:1047C00085FFFCCF9093C600319694919923B1F761
:1047D0008091C00085FFFCCF8AE08093C600FE0177
:1047E0009491EBE9F2E008C08091C00085FFFCCF16
:1047F0009093C600319694919923B1F7409169093D
:1048000050916A0960916B0970916C098AEE93E08E
:104810000E94922E40916D0950916E0960916F092E
:104820007091700987EE93E00E94922EEEE1F2E023
:1048300007C08091C00085FFFCCF31969093C600E1
:1048400090819923B1F78091C00085FFFCCF8AE069
:104850008093C600FE019491EBE9F2E008C08091DC
:10486000C00085FFFCCF9093C600319694919923A8
:10487000B1F7E4E3F3E0949108C08091C00085FFB4
:10488000FCCF9093C600319694919923B1F7809113
:10489000C00085FFFCCF8AE08093C600FE019491A2
:1048A000EBE9F2E008C08091C00085FFFCCF909357
:1048B000C600319694919923B1F7409165095091C2
:1048C000660960916709709168098BE293E00E9424
:1048D000922E40917D0950917E0960917F097091DF
:1048E000800988E293E00E94922E40913109509114
:1048F0003209609133097091340985E293E00E9496
:10490000A42E4091710950917209609173097091C0
:10491000740982E293E00E94922E409175095091B1
:10492000760960917709709178098FE193E00E9490
:10493000922E4091790950917A0960917B0970918A
:104940007C098CE193E00E94922EEEE1F2E007C038
:104950008091C00085FFFCCF31969093C600908176
:104960009923B1F78091C00085FFFCCF8AE0809346
:10497000C600FE019491EBE9F2E008C08091C0000E
:1049800085FFFCCF9093C600319694919923B1F79F
:10499000EAE0F3E0949108C08091C00085FFFCCF6D
:1049A0009093C600319694919923B1F78091C000FD
:1049B00085FFFCCF8AE08093C600FE019491EBE96D
:1049C000F2E008C08091C00085FFFCCF9093C60044
:1049D000319694919923B1F7409143075091440740
:1049E000609145077091460781E093E00E94922E06
:1049F00040914707509148076091490770914A07D5
:104A00008EEF92E00E94922E40914B0750914C07FE
:104A100060914D0770914E078BEF92E00E94922EAD
:104A2000EEE1F2E007C08091C00085FFFCCF319637
:104A30009093C60090819923B1F78091C00085FFC3
:104A4000FCCF8AE08093C600FE019491EBE9F2E08E
:104A500008C08091C00085FFFCCF9093C6003196BE
:104A600094919923B1F7EDEEF2E0949108C0809112
:104A7000C00085FFFCCF9093C60031969491992396
:104A8000B1F78091C00085FFFCCF8AE08093C6001B
:104A9000FE019491EBE9F2E008C08091C00085FF2F
:104AA000FCCF9093C600319694919923B1F7409131
:104AB000A6035091A7036091A8037091A90383EE08
:104AC00092E00E94922E6091AA037091AB038091B4
:104AD000AC039091AD030E943A79AB01BC0180EE2A
:104AE00092E00E94922E6091AE037091AF0380918C
:104AF000B0039091B1030E944679AB01BC018DEDEA
:104B000092E00E94922EEEE1F2E007C08091C00098
:104B100085FFFCCF31969093C60090819923B1F721
:104B20008091C00085FFFCCF8AE08093C600DF91B2
:104B3000CF9108950F931F93DF93CF93CDB7DEB737
:104B400028970FB6F894DEBF0FBECDBF80911A0232
:104B500090911B02A0911C02B0911D028D839E8337
:104B6000AF83B887FE01319604E610E0F999FECFD5
:104B700012BD01BDF89A80B580830F5F1F4F0836C4
:104B8000110511F03196F2CFCE010596BE016F5F8F
:104B90007F4F43E050E00E946D10009709F078C10C
:104BA000E5E4F9E0F999FECF12BD01BDF89A80B5B0
:104BB00080830F5F1F4F0837110511F03196F2CF38
:104BC000E5E3F9E0F999FECF12BD01BDF89A80B591
:104BD00080830F5F1F4F0838110511F03196F2CF17
:104BE000E5E5F9E0F999FECF12BD01BDF89A80B56F
:104BF00080830F5F1F4F0839110511F03196F2CFF6
:104C00000E94CF4DE9E6F9E0F999FECF12BD01BD52
:104C1000F89A80B580830F5F1F4F0C39110511F092
:104C20003196F2CFEDE6F9E0F999FECF12BD01BD64
:104C3000F89A80B580830F5F1F4F003A110511F07D
:104C40003196F2CFE5E6F9E0F999FECF12BD01BD4C
:104C5000F89A80B580830F5F1F4F043A110511F059
:104C60003196F2CFEDE7F9E0F999FECF12BD01BD23
:104C7000F89A80B580830F5F1F4F083A110511F035
:104C80003196F2CFE1E3F9E0F999FECF12BD01BD13
:104C9000F89A80B580830F5F1F4F0C3A110511F011
:104CA0003196F2CFE1E7F9E0F999FECF12BD01BDEF
:104CB000F89A80B580830F5F1F4F003B110511F0FC
:104CC0003196F2CFE5E7F9E0F999FECF12BD01BDCB
:104CD000F89A80B580830F5F1F4F043B110511F0D8
:104CE0003196F2CFE9E7F9E0F999FECF12BD01BDA7
:104CF000F89A80B580830F5F1F4F083B110511F0B4
:104D00003196F2CFE3E4F7E0F999FECF12BD01BD91
:104D1000F89A80B580830F5F1F4F043C110511F096
:104D20003196F2CFE4E3F1E1F999FECF12BD01BD76
:104D3000F89A80B580830F5F1F4F063C110511F074
:104D40003196F2CFE6E3F1E1F999FECF12BD01BD54
:104D5000F89A80B580830F5F1F4F083C110511F052
:104D60003196F2CFE8E3F1E1F999FECF12BD01BD32
:104D7000F89A80B580830F5F1F4F0A3C110511F030
:104D80003196F2CFEAE3F1E1F999FECF12BD01BD10
:104D9000F89A80B580830F5F1F4F0C3C110511F00E
:104DA0003196F2CFECE3F1E1F999FECF12BD01BDEE
:104DB000F89A80B580830F5F1F4F0E3C110511F0EC
:104DC0003196F2CFEEE3F1E1F999FECF12BD01BDCC
:104DD000F89A80B580830F5F1F4F003D110511F0D9
:104DE0003196F2CFE6EAF3E0F999FECF12BD01BDAC
:104DF000F89A80B580830F5F1F4F043D110511F0B5
:104E00003196F2CFEAEAF3E0F999FECF12BD01BD87
:104E1000F89A80B580830F5F1F4F083D110511F090
:104E20003196F2CFEEEAF3E0F999FECF12BD01BD63
:104E3000F89A80B580830B3D110521F00F5F1F4F5D
:104E40003196F2CF0E94FB78EBE9F2E0949108C032
:104E50008091C00085FFFCCF9093C600319694915D
:104E60009923B1F7E3ECF2E0949108C08091C0007F
:104E700085FFFCCF9093C600319694919923B1F7AA
:104E80008091C00085FFFCCF8AE08093C60001C0FE
:104E900070D91ADB28960FB6F894DEBF0FBECDBFCF
:104EA000CF91DF911F910F9108951F920F920FB62E
:104EB0000F920BB60F9211242F933F934F938F9322
:104EC0009F93EF93FF934091C600E0912C05F091E2
:104ED0002D0531969F012F773070319780912E05E7
:104EE00090912F052817390739F0E455FB4F40837F
:104EF00030932D0520932C05FF91EF919F918F9179
:104F00004F913F912F910F900BBE0F900FBE0F90BE
:104F10001F9018959A01AB01203081EE380780E090
:104F2000480780E0580749F182E08093C00060E0C4
:104F300079E08DE390E00E945DCE2150304040400A
:104F40005040CA01B90122E030E040E050E00E9448
:104F50005DCE3093C5002093C4008091C100806174
:104F60008093C1008091C10088608093C1008091CE
:104F7000C10080688093C10008951092C00020E1B4
:104F800030E0E7CF20912E0530912F0580912C0540
:104F900090912D058217930719F42FEF3FEF0EC064
:104FA000F901E455FB4F80812F5F3F4F2F77307021
:104FB00030932F0520932E05282F30E0C901089546
:104FC00080912E0590912F0590932D0580932C05AF
:104FD000089508952F923F924F925F926F927F9221
:104FE0008F929F92AF92BF92CF92DF92EF92FF92F9
:104FF0000F931F93DF93CF93CDB7DEB7A0970FB674
:10500000F894DEBF0FBECDBF1C016A017B014115C4
:1050100051056105710541F440E350E060E070E046
:1050200020E030E08BD055C0882499245401422ED2
:1050300055246624772401E010E00C0F1D1F080D95
:10504000191DC701B601A30192010E943BCEF801D0
:1050500060830894811C911CA11CB11CC701B6017E
:10506000A30192010E943BCEC901DA016C017D01CE
:10507000C114D104E104F104F1F681E0E82EF12C31
:10508000EC0EFD1EE80CF91C3E010894611C711C1D
:10509000D501C4010197A109B1096C01C818D9084B
:1050A00015C0F601EE0DFF1D40814A3010F4405D41
:1050B00001C0495C552747FD5095652F752FC101EB
:1050C00020E030E03BD00894E108F1086E147F0442
:1050D00041F7A0960FB6F894DEBF0FBECDBFCF91BB
:1050E000DF911F910F91FF90EF90DF90CF90BF90D5
:1050F000AF909F908F907F906F905F904F903F9078
:105100002F9008952115310539F48091C00085FF55
:10511000FCCF4093C60008955DCFEF92FF920F93AE
:105120001F939A01E62EFF2400E010E0B801A701CA
:10513000E9DF1F910F91FF90EF900895EF92FF929A
:105140000F931F93CF93DF93EC017A018B0121150D
:10515000310539F48091C00085FFFCCFE092C60094
:1051600019C02A303105A9F477FF0FC04DE250E095
:1051700060E070E020E030E0E1DF10950095F09411
:10518000E094E11CF11C011D111DCE01B801A70125
:105190002AE020DFDF91CF911F910F91FF90EF90D8
:1051A0000895EF92FF920F931F937B019A010027BE
:1051B000F7FC0095102FB801A701C0DF1F910F91D8
:1051C000FF90EF9008950F931F938C014DE050E0F6
:1051D00060E070E020E030E0B1DFC8014AE050E07C
:1051E00060E070E020E030E0A9DF1F910F910895AA
:1051F000CF92DF92EF92FF920F931F938C019A014F
:105200006B01EE24FF24B701A6017CDFC801DBDFC0
:105210001F910F91FF90EF90DF90CF9008959F9294
:10522000AF92BF92CF92DF92EF92FF920F931F93B4
:10523000CF93DF93EC017A018B01922ECB01BA015F
:1052400020E030E040E050E00E9443CA882364F44C
:10525000CE014DE250E060E070E020E030E06EDF33
:1052600017FB109517F9109520E030E040E05FE360
:10527000AA240BC0CA01B90120E030E040E251E4A9
:105280000E944ACA9B01AC01A394A91498F3C801D7
:10529000B7010E946AC97B018C010E94B7CA5B01F9
:1052A0006C010E94E3CA9B01AC01C801B7010E94D6
:1052B00069C97B018C01CE01B601A5012AE030E06D
:1052C00021DF992099F1EFE1F2E007C08091C00061
:1052D00085FFFCCF31969093C60090819923B1F75A
:1052E00025C0C801B70120E030E040E251E40E944F
:1052F00023CD7B018C010E94B2CA5B016C01CC24DE
:10530000B7FCC094DC2CCE01B601A5012AE030E048
:1053100015DFC601B5010E94E5CA9B01AC01C801B9
:10532000B7010E9469C97B018C019A949920C9F642
:10533000DF91CF911F910F91FF90EF90DF90CF9071
:10534000BF90AF909F9008956ACF0895089580917F
:105350006607089567707070E82FF0E0E053F64E2E
:1053600084918B3028F48830A0F4863090F106C008
:105370008E30D0F08F50833060F521C08091B10025
:10538000887F8093B1008091B100862B8093B1001B
:10539000089580919100887F809391008091910081
:1053A000862B8093910008958091A100887F80933F
:1053B000A1008091A100862B8093A1000895809187
:1053C0002101887F8093210180912101862B809388
:1053D000210108950F931F93CF93DF93813091059F
:1053E00049F46F5F7F4F09F046C081E395E00E946A
:1053F000031E41C0892B09F03EC06F5F7F4FD9F576
:1054000084E494E09093FC068093FB06809102076D
:10541000882321F08FEF96E00E947663C7EBD6E0F9
:1054200004E414E005C06F9785E0C138D80751F057
:10543000198308838F818823B1F3CE0104960E94DB
:105440007663F1CF84E494E0998388838F81882305
:1054500021F0CE0104960E94766384E494E0909358
:1054600061058093600580916705882321F084E6BB
:1054700095E00E947663DF91CF911F910F9108957F
:1054800080E090E06FEF7FEFA5CF81E090E06FEFDD
:105490007FEFA0CF0E941E7980916607882309F0D4
:1054A0003AC081E080936607809168079091690710
:1054B000A0916A07B0916B0780936C0790936D077A
:1054C000A0936E07B0936F07EBEBF4E0949108C0E4
:1054D0008091C00085FFFCCF9093C60031969491D7
:1054E0009923B1F7ECECF4E0949108C08091C000EE
:1054F00085FFFCCF9093C600319694919923B1F724
:105500008091C00085FFFCCF8AE08093C60082ECCA
:1055100094E00C941DBA0895F8940E941E79159A8F
:10552000179A429AA09A8CE060E00E9491C4EBEB3B
:10553000F4E0949108C08091C00085FFFCCF909367
:10554000C600319694919923B1F7EBE4F5E094917C
:1055500008C08091C00085FFFCCF9093C6003196B3
:1055600094919923B1F78091C00085FFFCCF8AE028
:105570008093C60082E495E00E942CBA809A8898B5
:10558000FFCF0E94E0C26093700770937107809311
:10559000720790937307E0919907F0919A07E55687
:1055A000F84F80818823A9F4EAE6F5E0949108C0D9
:1055B0008091C00085FFFCCF9093C60031969491F6
:1055C0009923B1F78091C00085FFFCCF8AE08093DA
:1055D000C6000895EF92FF920F931F930E94E0C2BE
:1055E000E0907407F09075070091760710917707A7
:1055F00020917007309171074091720750917307A5
:10560000621B730B840B950BE616F7060807190748
:1056100030F4E114F1040105110509F07DDF8091FA
:10562000880390918903A0918A03B0918B0300971E
:10563000A105B10529F10E94E0C2209170073091C7
:1056400071074091720750917307621B730B840BB3
:10565000950B209188033091890340918A035091E2
:105660008B03261737074807590750F49091720E9D
:105670008091730E981721F4159A179A429AA09A5E
:105680000E943C501F910F91FF90EF9008956F92F0
:105690007F928F929F92AF92BF92CF92DF92EF92C2
:1056A000FF920F931F93F82E6091780770917907FE
:1056B00080917A0790917B0720917C0730917D073C
:1056C00040917E0750917F070E945ECC3B014C01C8
:1056D00000D000D00DB71EB70F5F1F4F6091780349
:1056E00070917903882777FD8095982F0E94E5CAED
:1056F00020918C0330918D0340918E0350918F0344
:105700000E9423CD20E030E040E752E40E944ACAE4
:1057100020E030E048EC52E40E944ACA5B016C0190
:10572000F8016082718282829382F48280915B07A9
:10573000858383E397E064E877E048E757E020E07B
:1057400001E032E0E32E0E94244980918407909189
:105750008507A0918607B0918707809333079093C0
:105760003407A0933507B09336078091880790914E
:105770008907A0918A07B0918B0780933707909390
:105780003807A0933907B0933A0780918C0790911E
:105790008D07A0918E07B0918F0780933B07909360
:1057A0003C07A0933D07B0933E07809190079091EE
:1057B0009107A0919207B091930780933F07909330
:1057C0004007A0934107B09342078DB79EB7069656
:1057D0000FB6F8949EBF0FBE8DBF0E94E0C26093CB
:1057E00070077093710780937207909373071F91EE
:1057F0000F91FF90EF90DF90CF90BF90AF909F9070
:105800008F907F906F900895CF92DF92EF92FF92EA
:105810000F931F930E94E0C260937007709371070B
:1058200080937207909373076091330770913407E8
:105830008091350790913607209184073091850734
:1058400040918607509187070E9443CA882309F038
:105850007AC060913707709138078091390790912D
:105860003A07209188073091890740918A07509123
:105870008B070E9443CA882309F065C060918C039E
:1058800070918D0380918E0390918F0320E030E022
:1058900040E752E40E944ACA7B018C0184E897E009
:1058A00068E877E04CE857E020E937E0EBE5CE2EFA
:1058B000E7E0DE2E0E9423538091840790918507B4
:1058C000A0918607B09187078093330790933407A0
:1058D000A0933507B0933607809188079091890788
:1058E000A0918A07B0918B07809337079093380770
:1058F000A0933907B0933A0780918C0790918D0758
:10590000A0918E07B0918F0780933B0790933C073F
:10591000A0933D07B0933E07809190079091910727
:10592000A0919207B091930780933F07909340070F
:10593000A0934107B09342071F910F91FF90EF9002
:10594000DF90CF9008956091780370917903882754
:1059500077FD8095982F0E94E5CA20918C033091A5
:105960008D0340918E0350918F030E9423CD20E040
:1059700030E040E752E40E944ACA20E030E048ECC0
:1059800052E488CF80E395E01BDBEDE6F5E09491EF
:1059900008C08091C00085FFFCCF9093C60031966F
:1059A00094919923B1F740916807509169076091EC
:1059B0006A0770916B074F5F5F4F6F4F7F4F80E3B8
:1059C00095E02AE030E0BADB8091C00085FFFCCF93
:1059D0008AE08093C600D5CD2F923F924F925F927E
:1059E0006F927F928F929F92AF92BF92CF92DF92EF
:1059F000EF92FF920F931F93DF93CF9300D000D0CD
:105A0000CDB7DEB78C018330910508F051C13C0160
:105A1000660C771C660C771C93012D5C384F3A831B
:105A2000298380E090E0A0E0B0E0F90180839183D9
:105A3000A283B38383E397E067E377E04BE357E028
:105A40002FE337E00E94174EF301EC5AF84F6591AF
:105A50007591859194910459184FF801E490930140
:105A60002C57384F3E832D8320E030E040EC5FE33D
:105A70000E9423CD5B016C01FF24E7FCF0940F2D05
:105A80001F2DC801B7010E94E5CA1B012C01C601E8
:105A9000B501A20191010E9423CDAD81BE816D931C
:105AA0007D938D939C931397F301E859FC4FFC83EE
:105AB000EB83608171818281938160938C03709309
:105AC0008D0380938E0390938F0320E030E040E7B6
:105AD00052E40E944ACA7B018C0184E897E068E89E
